:10000000581300202520000023200000232000009A
:1000100000000000000000000000000000000000E0
:10002000000000000000000000000000232000008D
:10003000000000000000000023200000232000003A
:1000400023200000232000002320000023200000A4
:1000500015010000232000002320000023200000C1
:10006000232000002D0E00003D0E00004D0E00006C
:100070005D0E00000000000000000000851C000074
:10008000951C0000A51C00004D1D00005D1D00001A
:100090006D1D000000000000000000002320000093
:1000A0002320000023200000232000002320000044
:1000B0000000000010B5064C2378002B07D1054B3B
:1000C000002B02D0044800E000BF0123237010BDC4
:1000D000AC0000200000000070780000084B10B554
:1000E000002B03D00749084800E000BF0748036819
:1000F000002B00D110BD064B002BFBD09847F9E731
:1001000000000000B000002070780000707800004F
:100110000000000070B50022104B1A700023104937
:100120001F25104E0D4C0AE00D4908E023780133DD
:10013000DBB223700F2B10D800211F2BF4D928001D
:1001400018400122824008691042EFD00A619B00EA
:100150009B59002BEAD09847E8E770BD400100208A
:100160000018004044010020044A137802210B4388
:10017000137053785BB2002BFBDB70470018004014
:1001800000B583B0124A936940210B43936101A9E2
:1001900002230B7005200F4B984705200E4B984704
:1001A0000E4A137801210B43137053785BB2002B76
:1001B000FBDB0B4B19004031002204C39942FCD1F8
:1001C0001022084B1A60084B984703B000BDC04688
:1001D00000040040D1140000451400000018004045
:1001E0004401002000E100E06901000070470000C8
:1001F0000C4B1B68002B06D1EFF31083002B07D0AC
:100200000022094B1A70074A1368013313607047C4
:1002100072B6BFF35F8F0022044B1A700132024B9B
:100220001A70F0E7C8000020CC0000200000002079
:10023000084B1A68013A1A601B68002B09D1064B5B
:100240001B78002B05D00122044B1A70BFF35F8F7F
:1002500062B67047C8000020CC00002000000020DB
:100260000268937A5BB2002BFBDB138802210B43FD
:10027000138070470268937A5BB2002BFBDBC123CB
:1002800093711372138802218B431380704700000F
:1002900070B504000568064B98472268937A5BB2F4
:1002A000002BFBDB2B88012213432B8070BDC04643
:1002B0007502000010B5CB88C2889A1A92064B7955
:1002C0009B050C79640423438C7824032343134354
:1002D0000279002A05D1CA78002A02D0802252026F
:1002E0001343487880010A781043184310BD10B5B5
:1002F0008B0EC4881B19D3808B011B0F53718B028B
:10030000DB0E13710379002B0CD10B041B0F9370C0
:10031000CB03DB0FD37088093F231840507019407E
:10032000117010BDCB03DB0E9370F4E710B50468B9
:10033000034B9847A37A5BB2002BFBDB206110BD17
:10034000B502000010B50A0003684179002906D003
:10035000598849040BD519690A4B984710BD0A49B9
:1003600059800468A17A49B20029FBDBF3E7598878
:10037000C0242402214359800468A17A49B200298B
:10038000FBDBE8E7EF0200000080FFFF70B50D0027
:1003900014001723012A01D9180070BD0668064B06
:1003A0009847B37A5BB2002BFBDBE4003419A06101
:1003B0002B7A23770023EFE7B502000030B583B036
:1003C0000500140001601C4A936920210B439361CE
:1003D00001A902230B700420184B98470420184BE6
:1003E00098472800174B984723792B71E3786B7156
:1003F000E388EB80144B1D602A682388217900294B
:1004000017D008210B43A178002901D080210B438C
:100410001380E378002B04D053888021C9010B435B
:1004200053802100083100222800084B984703B070
:1004300030BD48210B43E6E700040040D114000022
:100440004514000091020000840100208D0300008B
:10045000F0B5D6464F464646C0B58AB006000F00F6
:10046000140031600800A04B9847A04A116A851C0F
:100470000123AB400B43136209A9237B0B7014309B
:10048000C5B228009A4B984728009A4B9847207B82
:100490000021994B98473B681C209B0705D50AB063
:1004A0001CBC90469946A246F0BD3B681738DB0756
:1004B000F5D430688C4B9946984705008F49904B8E
:1004C0009847AD008F4BEE500023337673760025AE
:1004D0007383B3832522B554336214333B6033688E
:1004E00098461800C8478146802308AA13705570A3
:1004F00001239370D570E069276A002800D1AFE02E
:1005000008AB1870022308AA5370000CC0B2110087
:100510007D4B9847002F00D1A7E008AB1F70022346
:1005200008AA53703F0CF8B21100774B9847A38A82
:10053000F380E38A3381237E8022002B04D1734B26
:100540009B789B07DB0FDA01A16823690B431343F8
:100550002422A25C002A02D08022D2051343A26A80
:1005600013432C22A25C002A03D1802292049142E0
:1005700002D18022120513432D22A25C002A02D050
:100580008022120413432E22A25C002A02D0802271
:10059000D20313434246126813434246136080233A
:1005A0005B00536048461430C0B2594B98470790DF
:1005B000FA239B0022685A43914663689A46554D38
:1005C000A847009001914B465800A847029003911C
:1005D000208EA847049005914F4F504A504B0098E9
:1005E0000199B84702000B0004980599B8474D4E91
:1005F00000224D4BB047049005914846A8470200A1
:100600000B0004980599B84702000B00474D00986D
:100610000199A847029A039BB0470022444BA84780
:10062000029A039B434DA847434B984705008023FC
:100630009B04A2689A421ED003004020FF2D00D9DF
:100640002DE700240020FF251D402406254300043B
:10065000FF231B04184005434346DD6000201EE7CE
:1006600000214046354B98474AE701214046334B2D
:100670009847070051E7FA26B60053465E430098B4
:10068000019902000B00274CA04700900191300017
:10069000204B984700222A4BB84702000B000098D5
:1006A0000199244CA0470022214B204CA047224B0B
:1006B0009847041E0CD031000798224B9847023807
:1006C000001B2B00FF2D0CD8FF28BCD94020E6E6EC
:1006D0007100481E079B9C4660441A4B984701389E
:1006E000EFE74020DBE6C0467D0D0000000400403F
:1006F000D114000045140000350C0000490A000028
:10070000C90D000088010020C9150000002000412B
:10071000ED140000B56F00009D63000095D626E83B
:100720000B2E113E15550000000024409D6800006E
:100730000000F03F355B0000C96E0000810C000036
:10074000000008405D45000003681A7E920707D547
:1007500002221A765B8B9B074120DB1718407047FB
:100760005A8B520706D55968C02292020A435A6032
:100770001820F4E70020F2E730B5026800230124D6
:100780000225117E21420BD1117E294206D101336F
:100790009BB201899942F4D8122002E0002000E0C7
:1007A000002030BD10B5046862688023DB0213436B
:1007B00063606162024B98470123237610BDC046F7
:1007C0007907000001680722CB691A42FCD1704703
:1007D00070B5040006683268458B838BED1AADB2A4
:1007E000838B013B9BB2838313011DD5C37A002BFE
:1007F00003D0838B9BB2012B10D0A38B9BB2002B19
:1008000002D1A37A002B1CD12000124B9847236AF7
:100810005D192823F35CDBB22B7070BD72688023F6
:10082000DB0213437360E8E7C37A002BE5D0838BC8
:100830009BB2002BE1D172688023DB02134373600B
:10084000DBE72000034B98477268C0239B021343E9
:100850007360D9E7C507000070B5040005686B8BAD
:100860005B0703D51E222523C25470BD468B838BA4
:10087000F61AB6B2838B013B9BB28383044B984735
:10088000236A9E193378DBB22822AB54EDE7C046C9
:10089000C507000070B505000C0006684B7A002BF8
:1008A0001AD17368134A1340736063682B626388BC
:1008B000AB8300222423EA5405320133EA54223B5D
:1008C000B375237A002B0BD123885B00627A9203E5
:1008D00013437362002070BD897A074B9847E0E7A5
:1008E00023885B00627A920313438022120213432F
:1008F0007362EFE7FFFFFBFFA5070000F8B50500F7
:100900000C0006684B6803624B8883830122242312
:10091000C25404320133C25437683F01FF0F4B7A8F
:10092000002B17D1002F02D06388012B16D07368DB
:10093000204A13407360237A002B15D10323B3752B
:1009400023885B00627A920313430122134373628C
:100950000020F8BD897A184B9847E3E77268802336
:10096000DB0213437360E6E723885B00627A92033D
:100970001343802212021343736228000F4B9847DF
:1009800073680C4A134073600028E2D128000C4BB6
:1009900098470028DDD10323B37523881B0A7822EA
:1009A00013435B00627A920301210A43134373628B
:1009B000CFE7C046FFFFFBFFA50700007907000057
:1009C00049070000931C9B00C3185960037E012156
:1009D00091400B43DBB203767047000010B5838B68
:1009E0009BB20522002B01D0100010BD0133837291
:1009F000C372024B98470200F6E7C046FD080000AC
:100A000010B5838B9BB20522002B01D0100010BDC6
:100A100001338372C372024B98470200F6E7C04667
:100A20009508000010B5838B9BB20522002B01D0E6
:100A3000100010BD83720133C372024B984702004D
:100A4000F6E7C0469508000070B58000754BC458A5
:100A500025682B681B01DA0F637E267E1E40638BA0
:100A60009BB2002B03D1A38B9BB2002B23D1638BB2
:100A70009BB2002B08D0A38B9BB2002B04D1253353
:100A8000E35C052B00D16DE0638B9BB2002B24D07F
:100A9000A38B9BB2002B20D06B8B9B0600D581E0F3
:100AA000002A04D0A38B9BB2012B00D17AE0412213
:100AB0002523E25411E02B7EDB0707D501232B769B
:100AC0006B8B9B072ED541222523E254A38B9BB22F
:100AD00063832523E35C052B38D0638B9BB2002B0B
:100AE00007D0A38B9BB2002B03D12533E35C052BEE
:100AF00064D02523E35C052B13D02523E35C002B76
:100B00000FD003232B7500236383A3832533E35C7A
:100B1000412B03D0A37A002B00D075E0730700D5DA
:100B20007BE070BD6B8B5B07D0D518222523E25488
:100B30000023A383A37A002BC8D020003A4B984708
:100B40006A68C0239B0213436B60BFE71F33E35CFB
:100B5000002B03D02000354B9847BEE72000344BD4
:100B60009847BAE71F33E35C002B00D08CE70333D0
:100B70002B750023638325330022E254A37A002BD4
:100B800007D101232B76F307A7D5E3682000984708
:100B9000A3E72000244B98476A68C0239B021343B5
:100BA0006B60F0E72423E35C002B03D12000204B93
:100BB000984792E720001D4B98478EE71F33E35C70
:100BC000012B96D12B7E9B0701D502232B76032385
:100BD0002B750023638325330022E254B30703D52A
:100BE0002423E35C012B0BD0F30700D481E72423FB
:100BF000E35C002B00D07CE7E3682000984778E7AF
:100C000023692000984774E72000074B98476A68DB
:100C1000E023DB0213436B6080E7636920009847A1
:100C20007FE7C04688010020C5070000D10700000B
:100C30005908000010B582B004000E4B1B78002B41
:100C400007D0002905D10B4B5B78834210D01D20C3
:100C50000CE001A90C701320074B98471320074B99
:100C60009847044B5C7001221A70002002B010BD3E
:100C70000020FBE7D0000020D11400004514000044
:100C80002B4B984223D00FD92A4B98422FD02A4B76
:100C9000984242D101293AD0002946D0022938D0C1
:100CA000032938D0002039E0244B984235D101295E
:100CB00007D0002933D0022905D0032905D0002010
:100CC0002CE01F482AE01F4828E01F4826E00129A1
:100CD00007D0002925D0022905D0032905D00020FE
:100CE0001CE01A481AE01A4818E01A4816E00129D0
:100CF00007D0002917D0022905D0032905D00020EC
:100D00000CE015480AE0154808E0154806E01548CB
:100D100004E0154802E0154800E000207047144840
:100D2000FCE70320FAE71348F8E71348F6E7C04664
:100D3000000C004200100042001400420008004273
:100D40000300050003000600030007000300010084
:100D500003001E0003001F000300090003000A0037
:100D600003000B0003001100030012000300130036
:100D700003000400030008000300100030B585B034
:100D80006A460F4B32CB32C21B6813600300009AD5
:100D9000824211D0019A82420AD0029A824209D03C
:100DA0000020039A9A4201D005B030BD033004E020
:100DB000012002E0022000E00020C0B2F4E7C046BB
:100DC000D07300007047000030B50B4B1B78002B30
:100DD0000ED10A4C0A4D25600A4B00221A6065604C
:100DE0005A60A5609A60E560DA600132024B1A70C1
:100DF0008000024BC15030BDD2000020D400002042
:100E0000C50D00008801002010B582B001AC092397
:100E10002370013363700133A3700133E370024B1D
:100E20009847205602B010BD7D0D000010B5024B52
:100E30001B680020984710BDD400002010B5024B5D
:100E40005B680120984710BDD400002010B5024B0C
:100E50009B680220984710BDD400002010B5024BBB
:100E6000DB680320984710BDD400002010B5082887
:100E700003D880001C4B1B589F46002032E01B4BC0
:100E800018692FE01A4B1B6A9B059B0F1948D84025
:100E900028E0164B586925E0144B1B6800209B077F
:100EA00020D513491022CB681A42FCD00F4B1A6888
:100EB00024231340042B01D00F4813E000200F4BD4
:100EC00098470A4B9B681B041B0C58430AE05023AD
:100ED000074AD35C00205B0704D5044BD86801E0C7
:100EE0008020000210BDC046E0730000E400002036
:100EF0000008004000127A00006CDC02ED140000D3
:100F000070B50C490B6A047885784078012210404E
:100F100080014026B34303432A40D201802083430B
:100F200013430322224012020348034013430B627F
:100F300070BDC04600080040FFFCFFFFF0B5DE4674
:100F400057464E464546E0B50100264B9B469B8AD8
:100F5000457800784242424191468878CA78944662
:100F60000A7990464E7B0F7B8C7B8A681E494A61CA
:100F700001214A4692009146042293434A46134374
:100F800042460A40D2009046082293434246134309
:100F900062460A401201944610229343624613436C
:100FA000084040012022934303430F40BF014020EB
:100FB00083433B430E40F60140308343334379384B
:100FC00005402D02094803402B43214009030848EE
:100FD00003400B435A4693823CBC90469946A24636
:100FE000AB46F0BD00080040E4000020FFF8FFFF22
:100FF000FFEFFFFF10B5037A9B061B0C4289920599
:10100000920D134318494B608379C2791343428888
:101010008488224313434278D20113430B60037840
:10102000042B11D0202B0ED1037B9B06028A134385
:10103000C28912040D490A4013430B4A9360116898
:101040000B4B0B43136010BD037B9B06028A1343BB
:10105000C289120405490A401343034A9360136886
:1010600004210B431360EEE7E40000200000FF03BF
:1010700024040000082803D88000254B1B589F46F5
:10108000172044E0234A136A02210B431362002015
:101090003DE0204A936902210B439361002036E032
:1010A0001C4A138A02210B43138200202FE0194AA5
:1010B000938A02210B439382002028E016490B6893
:1010C000022213430B60134B9A8419000E32CB6833
:1010D0001A42FCD0104A91680E4BD96252689A624B
:1010E00000229A8419001032CB681A42FCD00A4BB5
:1010F0001B689BB2074A9384002008E005494422FC
:101100008B5C022003438B54002000E000207047DA
:101110000474000000080040E4000020F0B5CE4652
:10112000474680B58FB0C222D2004F4B9A604F4ADB
:1011300053681E218B431C390B435360012201ABC2
:101140001A7000244A4DE0B201A9A8470134252CA9
:10115000F9D10AA8002303708370802212028260F2
:1011600001220271837306214170C27043730273BE
:10117000404B98470520404B98473B490222CB689B
:101180001A42FCD0384A938A80210B43938205ABE4
:10119000002119700022598099809A71DA71063104
:1011A00019825A70354B1B689B0E3F2B59D005A8EE
:1011B000037280239B004381FA3BFF3B0373383368
:1011C000C3812F4B984704A80025457001268670DF
:1011D00005702C4B98470620274FB8472A4B984755
:1011E00001AC65706572052323701B330293267270
:1011F00021000220254B994698470220244B98460F
:101200009847666065700623237025726572210019
:101210000320C8470320C0470720B84712491022BF
:10122000CB681A42FCD0104A938C80210B439384E4
:10123000184A0023137253729372D37201A90122C8
:101240004A604B700B724B7207330B7000200F4BD0
:10125000984700200E4B98470FB00CBC904699461B
:10126000F0BD203BA3E7C04600080040004000411D
:10127000D11400003D0F00007510000024608000B4
:10128000F50F0000010F000099120000BD120000D0
:101290007513000000040040064A936908210B43BF
:1012A00093610122044B1A7019000B781342FCD190
:1012B0007047C04600040040000C004070B50600B6
:1012C00004000D782D0205434B78002B02D08023BB
:1012D000DB021D434B7A002B02D080231B031D43EE
:1012E0004868012810D9431E184234D1022830D949
:1012F0000223002201325B009842FBD812023243E3
:10130000140080235B031D430B7A002B02D0802343
:101310009B031D43134A53785BB2002BFBDB124B3C
:101320009847124B1E700F4A53785BB2002BFBDBC1
:101330000C4B9C601A0053785BB2002BFBDB094A14
:101340005368802149020B401D435560084B984764
:1013500070BD0022D2E70402344380239B021D4368
:10136000D2E7C046000C0040F1010000080C00402C
:101370003102000010B504000B4A53785BB2002B19
:10138000FBDB0A4B98470A4B1C70074A53785BB249
:10139000002BFBDB044A516880235B020B43536044
:1013A000044B984710BDC046000C0040F1010000FE
:1013B000040C00403102000070B504001A4A537852
:1013C0005BB2002BFBDB194B9847194B1C70164A7C
:1013D00053785BB2002BFBDB134E7068C004C00E69
:1013E000144B98470500124B1C707668F602F60FF6
:1013F000114B1C700C4A53785BB2002BFBDB0A4B81
:101400009C682402240C0D4B9847002E07D1012C18
:1014100007D9210028000A4B9847050001E0013454
:10142000E540280070BDC046000C0040F1010000FE
:10143000040C00406D0E0000080C0040310200005A
:101440005D45000010B50400064B9847064B1C7024
:10145000064A53888021C9010B435380044B9847A7
:1014600010BDC046F1010000020C0040000C00401D
:101470003102000010B504000F4B98470F4B1C7051
:101480000F4A53881B05180F53880E490B40538091
:1014900053880D490B40538011008022D2014B88A4
:1014A0001342FCD106494A8803020648024013430E
:1014B0004B80064B984710BDF1010000020C004024
:1014C000000C0040FFF0FFFFFFBFFFFF31020000F4
:1014D00010B50C7824020443024B9847A4B2024B87
:1014E0005C8010BD75140000000C004010B50400B5
:1014F000064B9847064B1C70064B5C882405240F4E
:10150000054B98472000054B984710BDF10100009E
:10151000020C0040000C004031020000B913000032
:1015200030B5D378002B35D11378802B29D01B060A
:1015300080246402234354780225AC4306D1947876
:10154000002C20D18024A402234341605478013C24
:10155000012C1CD90D042D0CA024E4052C431C43A4
:1015600084620D0CD02424062C431C438462D4785E
:10157000002C22D15B031CD59378012B1ED0416136
:1015800017E00023D7E7C024E4022343DDE70D4C36
:101590002340DFE741600C04240CA023DB05234338
:1015A00083620C0CD0231B0623438362D378002B69
:1015B00003D15378013B012B02D930BD8161F8E79B
:1015C0008160FAE7FFFFFBFF10B50A00C1090023A5
:1015D000002904D14309DB0105498C4663441F24DB
:1015E0002040012181401800024B984710BDC046A1
:1015F00000440041211500007047000010B5054B64
:101600009847054B9847054B9847054B9847054B1E
:10161000984710BD1D110000ED010000F9150000F4
:1016200081010000F9150000094B98420CD0094BCC
:10163000984207D0084A0023904201D01800704712
:10164000023302E0012300E00023DBB2F6E7C046EC
:10165000002000420024004200280042F8B50F009C
:1016600015001E0004682000164B9847164B1A5CA4
:101670001723BA4201D81800F8BD8000134BC25896
:101680001723AA42F7D3002E10D080225202BA406C
:10169000236B1A42FCD180221203BA40A3681A427B
:1016A000FCD11C37BF003D510023E4E780225200EB
:1016B000BA40A3681A42FCD11037BF00E419656034
:1016C0000023D8E729160000347400003C740000A1
:1016D00010B5040008004F4B98470023236080009A
:1016E0004D4A82586260A372E3722373637223725D
:1016F000E36123626362A36223756375A375E37577
:101700002376637623746374A374E3742C22A35446
:101710000132A3540132A3540132A3540132A35421
:101720000132A3540132A3540132A3540132A35411
:101730000132A3540132A3540132A3540132A35401
:101740000132A3540132A3540132A3540132A354F1
:101750000132A3540132A3540132A3540132A354E1
:101760000132A3540132A3540132A3540132A354D1
:101770000132A3540132A3540132A3540132A354C1
:101780000132A3540132A3540132A3540132A354B1
:101790000132A3540132A3540132A3540132A354A1
:1017A0000132A3540132A3540132A3540132A35491
:1017B0000132A3540132A3540132A3544132A35441
:1017C000A365A3670132A354E365E3670132A35421
:1017D00023661A3AA3501B32A3546366173AA350E8
:1017E0001832A354A366143AA3501532A354E366E7
:1017F000113AA3501232A35423670E3AA3500F326A
:10180000A35463670B3AA35001210C32A154013257
:10181000A35410BD291600003C740000F0B5DE464C
:1018200057464E464546E0B591B001900C00150074
:101830000800C34B984703000100C248026A9E009B
:10184000C14FF7593A43026222681C20920706D51D
:1018500011B03CBC90469946A246AB46F0BD22680A
:1018600001271740F4D1B948325817202E68B242E8
:10187000EED36E68B242EBD3E869824200D2B9E19E
:10188000286A824200D2B7E1686A824200D2B5E19A
:10189000A86A824200D2B3E198229446AC446246E0
:1018A0000892002003E001300132082808D01678A1
:1018B000002EF8D0A64E765C8642F4DC1720C7E7EF
:1018C0000022029280204004844602E00132042A71
:1018D0000ED0A818007C0128F8D19E48405C9042A8
:1018E00000DA8FE160469040029E06430296EDE7E3
:1018F0009D32AA5C002A04D0802212010299114371
:1019000002912A7A511E8A41920006926A7A012A2D
:1019100022D0904AD25C110005923522AA5C8A42FC
:1019200000D379E12C21695C0F2900D974E1287B6F
:101930000A90E87A0B902D208246AA440020049752
:101940000EAE0796C0263601B1468446A046280052
:1019500055460993824635E0069911430691D8E72A
:1019600092024F463A400A4319798B4603215F465B
:1019700039400A4316435A79520160210A403243E2
:1019800099790902C026B6000E401643DA7912038F
:10199000E021C9010A4016433443039A144320430B
:1019A000624607995050042A2AD09A7C05999142A0
:1019B00000D831E1597A0A3504239B46DC440F29CB
:1019C00000D929E10906F0231B0519402B002E78C8
:1019D0003604FF200004064068788024002800D1E7
:1019E000049C987808270397002801D10498039055
:1019F000D878834610205F46002FB1D10498AFE716
:101A000044465546099B524AD25C91465146503154
:101A100050464130002700220126B2460226FF36FA
:101A2000B34680267602B046A4461C004B460FE023
:101A30000678002E07D0934200D8E7E0022E14D09B
:101A4000564696403743013201310230082A10D001
:101A50000E78002EECD0934200D8D5E04646964052
:101A600037430678002EE9D1EDE75E4696403743CE
:101A7000E9E79946230064466A7E1201302111404D
:101A8000287E0722024011430022802040020E00DF
:101A900002E00132042A0BD0A918097D0029F8D0F0
:101AA0000599914200DCB3E0010091400E43F0E75C
:101AB000B2460198020004323430002102C2824250
:101AC000FCD100220198426382639900224A885027
:101AD0000460A022A95C643A81540DA9AA7A0A7014
:101AE0001E4AD65C30001E4B984730001D4B98476D
:101AF0004B46002B3CDD2E00583698339846A844C0
:101B000001239946AB464546A046089C03E00134B4
:101B10000436AC422AD02378002BF8D00CAB4A46CE
:101B20009A7000230CAAD37013002022B2181278E6
:101B30001A704A465A70307819000B4B9847E6E7FE
:101B40002916000000040040287400003C740000C6
:101B500048740000347400009801002038740000BC
:101B6000D114000045140000C915000044465D462C
:101B70000A9B1B030B9A12021343029A134323601E
:101B80000422A3681A42FCD1FF2323710422A36814
:101B90001A42FCD16B461B7E63710E9BE3600F9B68
:101BA0002361A7611D4AA3681342FCD15346E36336
:101BB0001022A3681A42FCD12B686363184AA368F9
:101BC0001342FCD16B6823640598002822DD1C3584
:101BD0000021144E32008A40A3681A42FCD104CD81
:101BE0000B0010339B00E3185A6001318842F1DC8E
:101BF00000202DE617202BE6172029E6172027E6E0
:101C0000172025E6172023E6172021E617201FE6D8
:101C100017201DE600201BE6172019E640000200F1
:101C2000800004000001080010B53C23C35C014C97
:101C3000A04710BD5D160000F0B5C64600B5800097
:101C40000E4BC7583B68DE6ABB6B7A6B13401E4075
:101C500000240B4B984602E00434302C0AD0434653
:101C6000E5583542F8D03B195B68380098473B6827
:101C7000DD62F1E704BC9046F0BDC046980100204B
:101C80004C74000010B50020014B984710BDC046B1
:101C9000391C000010B50120014B984710BDC0460B
:101CA000391C000010B50220014B984710BDC046FA
:101CB000391C0000931C9B001950022A09D0032AEA
:101CC0000CD0012393401A00037E134303760020B7
:101CD0007047037E102213430376F8E7037E202229
:101CE00013430376F3E7000070B58000164BC45829
:101CF00023689D7B227E637E13401D40EB0706D444
:101D0000AB070BD4EB0610D4AB0615D470BD200086
:101D1000A3689847012322689373F1E72000E368E2
:101D20009847022322689373ECE7200023699847C1
:101D3000102322689373E7E72000636998472368BC
:101D400020229A73E2E7C046A401002010B50020CB
:101D5000014B984710BDC046E91C000010B501209A
:101D6000014B984710BDC046E91C000010B5022089
:101D7000014B984710BDC046E91C000030B585B046
:101D800001AA0B4B32CB32C2019B98420DD0029B71
:101D9000984208D00023039A824202D0180005B06E
:101DA00030BD023302E0012300E00023DBB2F5E79F
:101DB0007C740000F0B587B004000D001600080028
:101DC000854B9847070005AB1B221A7001325A70E9
:101DD0009A7003AB802212011A80802252015A802D
:101DE000802292019A800023A360E36023616361F3
:101DF000237663768200794BD4502560B378082B24
:101E000006D023712B880520DB0705D507B0F0BD70
:101E10001720FA07FAD5F4E7EB7B1730DB06F5D489
:101E20002B889B07F2D4337C002B79D1337F002B96
:101E300000D081E06A49086A7A0003ABD35A0343B1
:101E40000B62B378082B00D186E001A933780B70C0
:101E500005ABDF5D3800634B98473800624B98470D
:101E60003189B3880B43B178B27911431943737840
:101E7000002B02D080231B0119432268D37B5BB265
:101E8000002BFBDB2980717B4B1E99418900B37BC2
:101E9000002B01D0012319432268D37B5BB2002BB6
:101EA000FBDBFF232B71002905D02268D37B5BB2BB
:101EB000002BFBDB6971B17AF37A002B01D0102380
:101EC0001943337B002B01D0202319432268D37B95
:101ED0005BB2002BFBDBA9712268D37B5BB2002BCA
:101EE000FBDB2379042B3FD0082B5ED01720002B7F
:101EF00000D08BE7D37B5BB2002BFBDB338D2B82D7
:101F00002268D37B5BB2002BFBDB738D2B832268B3
:101F1000D37B5BB2002BFBDBB38D6B83002075E7BB
:101F200002A901238B700022CA70327E0A704B70A6
:101F3000307D2E4B984779E702A901238B70002250
:101F4000CA702432B21812780A704B701F33F3181B
:101F50001878264B98476DE7086A7A1C520003AB45
:101F6000D35A03430B6270E7D37B5BB2002BFBDBDE
:101F70002823F35C2B742268D37B5BB2002BFBDB42
:101F80002923F35C2B752268D37B5BB2002BFBDB30
:101F90002A23F35C2B762268D37B5BB2002BFBDB1E
:101FA0002B23F35C6B76002030E7D37B5BB2002BF6
:101FB000FBDBB36A2B612268D37B5BB2002BFBDBBC
:101FC000F36AAB612268D37B5BB2002BFBDB336B24
:101FD000EB6100201AE7C0467D1D0000A40100202F
:101FE00000040040D114000045140000C915000091
:101FF0000268D37B5BB2002BFBDB0379042B05D09B
:10200000082B0BD01720002B04D07047C9B21174D5
:102010000020FAE789B211820020F6E71161002062
:10202000F3E77047F8B52A4A2A4B9A4211D01A00B2
:10203000294B9A420DD2294A03339B1A9B0801333C
:102040009B000022234822498C58845004329A4233
:10205000FAD1234A234B9A420AD2D34321495B182F
:1020600003218B4304339B18002102C29342FCD10D
:102070001D4AFF211D4B8B439360FD3990235B006C
:102080001B4AD1501B4AD3780325AB430224234378
:10209000D370D3780C27BB4308263343D370164B39
:1020A000987B30229043202210439873997BB94348
:1020B000314399739A7BAA4322439A730F4A536818
:1020C00080210B4353600E4B98470E4B9847FEE719
:1020D0007078000000000020AC0000200400002008
:1020E000AC0000205403002000ED00E000000000E0
:1020F0000070004100500041004800410040004194
:1021000019720000493000000300064A1268002AD4
:1021100004D0044A1068C318136070470249014A8A
:102120001160F6E7FC000020581300207047000003
:1021300010B50021094B9847094B1B8801339BB20E
:10214000084A934205D0064A13800122064B1A70B2
:1021500010BD0022024B1A80F7E7C046F11F0000B5
:1021600028010020E70300002401002010B50249E7
:102170000248034B984710BDD402002024020020DF
:10218000DD09000010B56522521A044B195C80006D
:10219000034BC058034B984710BDC04608000020B1
:1021A000C8740000291C0000F0B5D6464F464646CC
:1021B000C0B582B000226B46DA71484B9846484D54
:1021C00061E00133DBB2994207D0C25C002AF8D04B
:1021D0003B2BF6D86A46D771F3E76B4607331B787B
:1021E000002B34D03F4B1C7000273F4B99463F4E8D
:1021F00009E02000A8473D4B195D2000A8470137A2
:10220000FFB2052F10D04B461C78A300E4183C19F0
:10221000E4B2315D0029ECD12000314B9A46984759
:1022200000212000D047EAE7314A13780133DBB2BE
:1022300013702D4B1B78294AD25C5309DB012D49C1
:102240008C4663441F21114001228A409A61264B2B
:102250001B78274A10780B22D21A52B226490978E5
:1022600049B240B2091A8A4207DC01216A46D1719B
:102270001F490A780132D2B20A700133DBB21A4A1E
:1022800013700C2B1CD06B4607331B78002B1FD10F
:10229000144B1B784246D25C5309DB0115498C462E
:1022A00063441F21114001228A405A610E4B1C7861
:1022B000A300E318DBB2591DC9B20C48012784E71B
:1022C0000023137001216A46D171094A1370DAE7BD
:1022D00002B01CBC90469946A246F0BDB8740000FE
:1022E0008521000018010020250100201403002092
:1022F0002201002000440041020000203B2807D8B2
:10230000064B1B5C5A18642A03DC5B18034A1354FF
:1023100070476422014B1A54FAE7C04614030020A8
:1023200030B50A4B1C003D34002503E00D7001332D
:10233000A3420AD019001A78002AF8D08242F5D9AF
:102340000028F3D0121A1A70F1E730BD14030020F0
:1023500000230648002102E001333D2B05D0DAB20C
:102360003B2AF9D81A181170F6E7704714030020B9
:10237000F0B5CE46474680B51F4807000D371F26EB
:102380000123994602239C4603785A09D2011B492E
:1023900088464244310019404C468C409460D31822
:1023A0004033197865462943C9B219705461013028
:1023B000B842E9D10020124F1F260123994602237B
:1023C0009C46C35D5A09D2010C49884642443100FB
:1023D00019404C468C409460D318403319786546B8
:1023E0002943C9B21970946101300628E9D10CBCA7
:1023F00090469946F0BDC046B874000000440041C4
:10240000B074000010B5134B1A68D37B5BB2002B7D
:10241000FBDB138802210B4313800E4C02220E4972
:1024200020000E4B984720680D4B98470D4B1B5CC6
:102430001F221A40012393400B4A1360637E10222F
:1024400013436376236810225A730022074B1A80C5
:1024500010BDC046E002002031210000B51C000084
:102460007D1D0000C474000000E100E02801002090
:1024700000B58FB001AA00231370937000219380E0
:102480009171138151709172D17211739173517363
:1024900011745361936111771362536213859385AD
:1024A000044B538504490548054B9847054B98470D
:1024B0000FB000BD80BBFFFF002C0042E0020020F7
:1024C000B51D00000524000010B543B2002B06DB4B
:1024D000074B9847F2218905064B984710BD0138F4
:1024E000FF38054B9847F2218905024B9847F5E7DD
:1024F00089540000314E0000E9530000F0B5C64693
:1025000000B504000A4E7078C0B20A4DA847071CF7
:10251000F078C0B2A84780467079C0B2A84727605B
:1025200043466360A060200004BC9046F0BDC046F6
:102530001C010020C924000070B5094C0022094983
:102540002000094DA847012208492000A847637EC2
:10255000012213436376637E01321343637670BDB9
:10256000240200206D210000C50900002D2100007B
:1025700000B583B0064919230B80183B4B80054BEF
:102580004B600548054B98476B46D87103B000BDBA
:10259000100200204400002024020020250A000030
:1025A00010B5044B1B78002B00D110BD024B98478F
:1025B000FBE7C046010100207125000000B583B093
:1025C000084B19221A80173A5A80074A1070517026
:1025D0005A6019000548064B98476B46D87103B0FE
:1025E00000BDC0461002002034010020240200205B
:1025F000010A000010B5144B1B78002B18D0013BCA
:10260000DBB2114A1370114A1278002A01D1002B53
:1026100012D00F4B984710BD0E4A5B00D118497875
:10262000985C0D4B98470D4A137801331370F0E70F
:10263000064B1B78002BECD1084B1B78062BEBD9F3
:102640000122024B1A70E4E7010000200101002082
:10265000A1250000A0740000BD250000230100207A
:10266000034B19221A80133A5A80024A5A60704763
:10267000D40200201C01002030B58FB001AB6422D1
:102680000192264A0292002203921A76802189033F
:10269000059101214942D982998225315A540B92E0
:1026A00008315A5401315A5401315A54D7321A86DA
:1026B0001B4A08921B4A099203221A731A4D1B4C9B
:1026C00001AA1B492800A0470028F9D1164B1C6815
:1026D0000722E3691A42FCD12368022213432360D4
:1026E000114D2868134B98471F2318401E3B834009
:1026F000114A1360E88800231021628B0A4204D13A
:1027000001338342F9D310236383802124200B4BB0
:1027100098470B4B98470FB030BDC046480D00009E
:1027200003000800030009002402002051040000F7
:1027300000100042090E000000E100E0BD2500008D
:102740006126000010B5124B8021C90059604A2251
:10275000985C022420439854985C0234A043985417
:10276000985C033C2043985435201A5C0E34A243F5
:102770001A54084A084B5A80084B02221A70FE323B
:10278000DA615961D960F03A054B1A6010BDC04654
:102790000044004105400000000C004000180040CB
:1027A00000E100E010B5094C21000948094B9847A9
:1027B000A37860782178E122120153430201121AB2
:1027C00092009B18CB18044A136010BD0C03002024
:1027D0001C020020450300002C01002070B5154AA2
:1027E000A0231B01138000249470D4701471FA2369
:1027F000DB00D380147254729472D472012111736D
:102800005173D381062313740B4D0C4928000C4BD4
:10281000984728000B4B98470B4909238B70CC70C5
:1028200014334B700E3B0B702800084B9847084B35
:10283000984770BDB00100201C0200200014004029
:10284000BD030000610200000C0300202D03000006
:10285000A5270000024A1368013313607047C04681
:102860002C010020F0B5CE46474680B583B03F4BE3
:1028700018683F4F3F49B8470D00880040183E4E4A
:10288000E1210901B04701906B461C79E121090162
:102890002800B84708003C21B0470600C3B298465C
:1028A0003C212800B8470D00CBB29946334B9847DE
:1028B000002C35D1324A1E213B23D154C433019F11
:1028C0001F40F53BD3550134E4B23B2C02D81E2205
:1028D0002B4B1A55FF231E402A4B9B5D002B33D0F8
:1028E00043463B2B02D80022254B9A55FF231D401F
:1028F000244B5B5D002B2ED04B463B2B02D8002295
:102900001F4B5A55204B1B780133DBB2632B29D95F
:1029100000221D4B1A7003B00CBC90469946F0BDC6
:10292000631EDBB23B2B02D81E21154AD1543B2C2F
:10293000C9D8FF23019F1F400A22114BDA553B2CB7
:10294000C1D114321A70C5E743463B2BCED81422AE
:102950000B4B9A55CAE74B463B2BD3D80922084B61
:102960005A55CFE7084A1370D5E7C0462C0100201E
:1029700069460000C0A800005D450000512300002A
:10298000140300204C02002010010020F0B5DE46A8
:1029900057464E464546E0B58BB007A8904B984742
:1029A000904B1B68904A91460293181C90478F4D9C
:1029B0008F4A904B04900591A84700228E4B8F4C74
:1029C000A04706000F008E4B984700900191300001
:1029D00039008C4B984706000F000898C847009AAA
:1029E000019BA847009001910798C84732003B001F
:1029F000A84702000B00844F00980199B847834E06
:102A0000B047C8470022824BA84700900191814CF3
:102A10002068C847804A814BA84702000B000098F5
:102A20000199B847B047009020607D497D4B984799
:102A300002997D4B9847C8477C4A7D4BA847029036
:102A40000391754A754B04980599A84702000B003D
:102A500002980399B847B047041C7649764B9847CB
:102A600000286DD15F4B1C605E4B1C680021201C50
:102A7000724B984700286AD15A4B1C68201C5A4B4D
:102A80009847029003916E4B18786E4B984706005A
:102A90000F0000226C4B5C4DA84702000B0002980F
:102AA00003996A4DA84700280DD10022664B3000DB
:102AB0003900674DA84702000B0002980399654D45
:102AC000A847002804D0201C634B98475C4B187023
:102AD0005B4B1B789A46614B1B78534579D0604B12
:102AE0009847604900984F4B98475F4B9847C317EA
:102AF000C0185840C3B2029319001E205B4B984780
:102B0000C3B29B4653463B2B03D81E22584B51461B
:102B10005A54029B002B59D053465F1CFFB21E250E
:102B20005B46ED1AEDB253463B33DBB29946534652
:102B3000013BDBB2984656463B3EF6B2012425E007
:102B40003C49201C4B4B9847264B18608CE7394971
:102B5000201C354B9847234B18608DE73B2F01D83D
:102B6000434BDD550134E4B20137FFB25B46ED1A49
:102B7000EDB24B46013BDBB299464346013BDBB22B
:102B800098460136F6B2029BA3421FD3002100985B
:102B9000294B9847002808D053461B193B2BDDDDF5
:102BA0003B2EDFD8324B9D55DCE753461B1B06D42A
:102BB00043463B2BD6D82E4B42469D54D2E74B463C
:102BC0003B2BCFD82A4B4A469D54CBE7234B52464A
:102BD0001A700BB03CBC90469946A246AB46F0BD7D
:102BE000FD24000014010020257000009D630000FA
:102BF000182D4454FB21194000004E40355B000065
:102C00006D310000F931000015550000C970000059
:102C10000000D03F30010020666666666666EE3FC3
:102C20000000C842314E0000BD4900009A999999B0
:102C30009999A93F0000704211490000E94800003D
:102C400007010020316F00000000E03F9D480000B8
:102C50009D680000754800008D4900000D010020AE
:102C6000512300000000A041A95300005D45000071
:102C7000140300207150000010B5104A137801337E
:102C8000DBB21370022B00D010BD02200C4B984712
:102C90000C4A13780133DBB213703C2B08D03B2B6A
:102CA00002D81E21084AD1540022044B1A70EBE7C7
:102CB0000022044B1A700023F3E7C04605010020F0
:102CC000212300000E0100201403002010B5104A3B
:102CD00013780133DBB21370DB0704D50C4B1B7880
:102CE000052B0ED010BD0B4B98473C210A4B984743
:102CF000CBB23B2BF2D8FF2319401422074B5A5476
:102D0000ECE70120064B98470022014B1A70E9E7D7
:102D100006010020617200003D48000014030020FD
:102D20002123000010B5164B1B780133DBB2022BB8
:102D300002D0134A137010BD0022114B1A70114BB0
:102D40001C783B2C0CD8032120000F4B98470F4BCD
:102D500018550134E4B2792C0BD00A4B1C70EAE709
:102D600078231B1BDBB23B2BF3D80021074AD1543D
:102D7000EFE70022034B1A70054B9847DBE7C0468C
:102D800026010020000100205D4500001403002002
:102D900051230000F0B5DE4657464E464546E0B5A5
:102DA00083B006008946904600292ED00091434604
:102DB0006A46D371D1793000174B98473700002409
:102DC000164B9B46144B9A4616E0002618E03B270C
:102DD0000134E4B2A14518D9009940466043D84770
:102DE00043461D1AEDB2290030000B4B9847002CCA
:102DF00002D029003800D0473B2EE6D00136F6B28B
:102E0000002FE4D0013FFFB2E2E703B03CBC9046A4
:102E10009946A246AB46F0BDFD2200007146000077
:102E200070B5234B9847234D2C780A2206212000A9
:102E3000214B98470134E4B22C703C2C20D0032164
:102E400020001E4B9847C9B2012923D01C4B18788B
:102E50000A220F21184B9847E3070AD5194B1B7814
:102E6000002B02D13C22174B1A70164A1378013BF3
:102E70001370144B1878052206210F4B984770BD2C
:102E800000220C4B1A700E4B18780A320F210A4B95
:102E90009847EEE70A4B1B780133DBB23C2B02D09C
:102EA000074A1370D2E70022054B1A70CEE7C046DE
:102EB0005123000002010020952D0000694600000A
:102EC000040100200301002010B5214B1B78012BC9
:102ED00008D0002B02D0022B35D010BD01221C4B94
:102EE0001A70FAE71B4B1A78052A1DD893001A4A64
:102EF000D3589F46194B9847194B1B88013B9BB2EF
:102F0000002B15D0164A1380E7E7164B9847F3E7D6
:102F1000154B9847F0E7154B9847EDE7144B98474A
:102F2000EAE7144B9847E7E700220A4B1A70E3E7F9
:102F3000FA2252000A4B1A800F4B9847054A137821
:102F400001331370C9E70022014B1A70C5E7C04670
:102F50000F0100200C01002088740000792C000073
:102F600004000020252D00008D29000065280000A8
:102F7000212E0000CD2C00005123000010B5094B7C
:102F80001B78DBB2002B02D0012B07D010BD064A04
:102F9000064B1A600122034B1A70F7E7034B1B68BC
:102FA0009847F3E727010020C92E00000801002000
:102FB00010B5054B9847054B1B78002B02D0013B01
:102FC000024A137010BDC0465528000003000020BF
:102FD00010B5164B1B78002B00D110BD144B984731
:102FE000144B18880A21144B984789B2002914D031
:102FF000104B18880A21104B984789B205290FD029
:103000000C4B1888FA2189000B4B984789B200298C
:1030100009D00022054B1A70DFE7084B9847E7E715
:10302000074B9847ECE7074B9847F2E7240100204D
:10303000A92100002801002069460000F5250000B4
:103040007D2F0000B12F0000F0B5DE4657464E46FA
:103050004546E0B5ABB0374B9847374B9847374BB1
:103060009847374F01AC39002000364B9B469847B4
:10307000642398466360623B9A4623761423236256
:103080003C3363624346A36201263B33E6548E3BE6
:10309000636705258333E5500633E654883B236692
:1030A0006E33E5501D33E654863BE3667533E550D9
:1030B000254B9946220039001800244FB84724496F
:1030C0002000D84743466360534623762823E361B4
:1030D000143323625F33E654823B63666B33E550FF
:1030E0001633E654823B23666833E55022001849C4
:1030F0001848B8474B461B68022299680A42FCD11F
:103100001A6802210A431A60124B1B68022299684E
:103110000A42FCD11A6802210A431A600E4B9847F2
:103120000E4B98470E4B98470E4B98470E4CA047B6
:10313000FDE7C046FD150000DD27000071240000FA
:1031400000200042D1160000C40100201D1800001C
:10315000002400428802002071230000792600002C
:103160003925000045270000D12F000030B5204A46
:103170004B0087B05B0893421CDD1E4A934205DD7D
:1031800002000B0003F08AFB07B030BD02AA00F07A
:103190007BF803231840049A059B012818D00228C5
:1031A0000DD000281ED0029803990124009401F04C
:1031B00019F8E9E70022002300F07EFAE4E702981C
:1031C000039900F079FA80231B069C466144DBE7F3
:1031D00000900298039901F005F880231B069C4695
:1031E0006144D1E70298039900F066FACCE7C04643
:1031F000FB21E93FFFFFEF7F30B5214A4B0087B04D
:103200005B0893421EDD1F4A934205DD02000B005E
:1032100003F044FB07B030BD02AA00F035F80323E9
:103220001840049A059B01281ED0022811D00028BE
:103230001FD00298039900F03FFA80231B069C469A
:103240006144E7E7002300220093002300F0CAFF57
:10325000E0E7012402980399009400F0C3FF802363
:103260001B069C466144D5E70298039900F024FAB6
:10327000D0E7012402980399009400F0B3FFC9E756
:10328000FB21E93FFFFFEF7FF0B54E464546DE46A6
:103290005746E0B5D44B4C008FB090468946640841
:1032A0009C4200DC87E0D14B9C4222DCD04A0029C2
:1032B00000DCBFE1CF4B03F0F1FACE4B06000F006C
:1032C0009C4200D194E0CC4ACC4B03F0E7FA0200D8
:1032D0000B00414630000A604B60390003F0DEFA13
:1032E000C64BC54A03F0DAFA434601259860D96017
:1032F0006BE0C34B9C4200DC97E0C24B9C426CDC11
:10330000C14A231592469A4451460905631A190089
:103310001D00040003F0D8FD03F00AFE02000B00BC
:10332000200029000892099303F0B8FA0022B74B55
:1033300003F034F80F00060003F0C6FD03F0F8FDBB
:1033400004000D0002000B00300039000A940B95B8
:1033500003F0A4FA0022AD4B03F020F80022002372
:103360000C900D9101F080FA002800D181E100233A
:1033700000222000290001F077FA43424341013343
:10338000A34A41460192022208A80092524600F048
:10339000ADFA4B460500002B17DA80224346120691
:1033A000944642465B68454263445360D368424654
:1033B0006344D36009E00B00020041460A604B60A1
:1033C0000022002300258A60CB6028000FB03CBC9F
:1033D00090469946A246AB46F0BD0B00020003F0B2
:1033E0005DFA434600259860D96018605960ECE7A3
:1033F000D322824B520503F051FA864A864B0D00C8
:10340000040003F04BFA02000B00414620000A6062
:103410004B60290003F042FA7F4B7E4A03F03EFAEC
:10342000434601259860D960CFE700F08BFF7B4AC7
:103430007B4B06000F0002F0B1FF0022794B02F037
:1034400069F803F041FD050003F072FD684A694B1D
:103450000490059102F0A2FF02000B003000390039
:1034600003F01CFA644A06000F0004980599634BA8
:1034700002F094FF029003911F2D33DC6B1E6A4A09
:103480009B009B589C422DD002000B00300039005D
:1034900003F004FA0B008A460200414683460A60A4
:1034A0004B605A4653463000390003F0F7F9029A50
:1034B000039B03F0F3F944460B000200A260E360B3
:1034C0004B46002B00DB80E75B46236080231B0616
:1034D0005344636080231B069C466144A060E16006
:1034E0006D4272E7029A039B3000390003F0D6F96F
:1034F0000B008A46020041460A604B6053465B005F
:1035000024155B0D8346E31A102BCADD0498059938
:10351000D3223A4B520502F041FF02900391020080
:103520000B003000390003F0B9F906900791020052
:103530000B003000390003F0B1F9029A039B03F04D
:10354000ADF906000F0004980599324A324B02F09B
:1035500025FF32003B0003F0A1F9069E079F020001
:103560000B00300039000292039303F097F90B002F
:103570008A46020041460A604B6053465B005B0D81
:103580008346E41A06960797312C8ADD049805993C
:10359000B822214B920502F001FF03000C0002004B
:1035A0000293039430000B00390003F077F9020016
:1035B0000B0006000F000698079903F06FF9029AB6
:1035C000039B03F06BF9194A029003910498059943
:1035D000174B02F0E3FE029A039B03F05FF902002F
:1035E0000B000292039351E7FB21E93F7BD9024094
:1035F00000004054FB21F93F3163621A61B4D03DB1
:10360000FB213941FFFFEF7FEAFBFFFF0000704124
:10361000387600007370032E8A19A33B83C8C96DE6
:10362000305FE43F0000E03FB8750000C14920254D
:103630009A837B391B4B01F06DFF1A4B06000F007C
:103640009C4218D0184A194B01F064FF02000B008D
:10365000414630000A604B60390003F01FF9124AFE
:10366000124B01F057FF012543466D429860D96027
:10367000ABE6032384E6D3220C4B520501F04AFF4C
:103680000B4A0C4B04000D0001F044FF02000B003C
:10369000414620000A604B60290003F0FFF8044A0D
:1036A000044BDEE7FB21F93F3163621A61B4D03D80
:1036B0007370032E8A19A33BF0B54746CE4680B5FA
:1036C00087B000920193754B4F00814688467F0872
:1036D0009F4263DC03F0F8FB002800D1DAE04A46A1
:1036E00043464846414602F059FE04000D006C4A2C
:1036F0006C4B02F053FE6C4A6C4B01F00BFF220046
:103700002B0002F04BFE6A4A6A4B03F0C7F8220016
:103710002B0002F043FE684A684B01F0FBFE2200DA
:103720002B0002F03BFE664A664B03F0B7F822001E
:103730002B0002F033FE644A644B01F0EBFE2200E2
:103740002B0002F02BFE029003910022604B200020
:10375000290002F023FE029A039B06000F002000BE
:10376000290002F01BFE009A019B04000D00484650
:10377000414602F013FE02000B002000290003F076
:103780008DF802000B003000390003F087F80200CA
:103790000B0000204F4903F081F870E002000B009D
:1037A00002F0FCFD04000D003D4A3E4B02F0F6FD28
:1037B0003D4A3E4B01F0AEFE22002B0002F0EEFD32
:1037C0003B4A3C4B03F06AF822002B0002F0E6FD76
:1037D000394A3A4B01F09EFE22002B0002F0DEFD3A
:1037E000374A384B03F05AF822002B0002F0D6FD7E
:1037F000354A364B01F08EFE2B00220002F0CEFD42
:10380000354B029003919F429FDD344B00229F4233
:103810003ADC334900207B182E4916001F0003F0C4
:103820003DF8049005910022294B2000290002F068
:10383000B5FD32003B0003F031F8029A039B06000D
:103840000F002000290002F0A9FD009A019B04004E
:103850000D004846414602F0A1FD02000B00200089
:10386000290003F01BF802000B003000390003F0C0
:1038700015F802000B000498059903F00FF807B043
:103880000CBC90469946F0BD164B00260492059359
:10389000154FC8E700200F49F1E7C046FFFF3F3E44
:1038A000D43888BEE9FAA8BDC4B1B4BD9EEE213EAD
:1038B000AD529C804F7E923E9015CB19A001FA3EEE
:1038C0007751C1166CC1563F4C5555555555A53FBE
:1038D0000000E03F0000F03F3233D33F0000E93FFB
:1038E0000000E0FF0000E73F0000D23FF0B5DE46F9
:1038F0004E4645465746E0B5A34CA54407911900EE
:103900001400A49A0993A14B9200D2580B00039083
:10391000013BE01E18211D0016000692029300F0E4
:10392000A7FEC3430200DB171A4013001100013346
:103930000B929A009B1ADB001B1904934C1B7619FF
:1039400018D4A59BA5009C46361922AF65440136C4
:1039500007E0286803F0ECFA013403C70435B442E9
:1039600008D0002CF5DA00200021013403C704350B
:10397000B442F6D1069B002B01DA00F001FC72ABD9
:1039800019008B4622AA9146069A08930132D2006A
:103990009344039A9A469046029BDB00994408336D
:1039A0009844029B002B00DA8DE24C46002600274B
:1039B000039D2268636803CD02F0F0FC02000B0057
:1039C0003000390001F0A6FD083C06000F00454517
:1039D000EFD15346C0C39A4608239C46E144DA45DA
:1039E000DFD1069A6A4913008C4663449B000EA8F7
:1039F0001900844661440D910399043B8B4663444E
:103A00000C93099B0092DB009B44009A0898D3001A
:103A100019000A938C46030063441E685F68002AFD
:103A200034DD0EAB994613005A4A804694466344EF
:103A3000DB00984470AB9A460022574B30003900A7
:103A400002F0ACFC03F040FA03F072FA0022534B90
:103A500004000D0002F0A2FC02000B00300039004F
:103A600002F01CFF03F030FA4B4601C3994643466F
:103A700020001A685B68290001F04CFD08235B42B6
:103A80009C46E04406000F00D045D5D1049B300091
:103A90001A003900994600F0F1FCFF2300229B0533
:103AA00004000D0002F07AFC00F050FC00223C4BB8
:103AB00002F074FC02000B002000290002F0EEFE70
:103AC0000D00040003F000FA804603F031FA020012
:103AD0000B002000290002F0E1FE0F00494606001D
:103AE000002900DC10E1009B18205A1E92000EAB4A
:103AF0009B58401A1D000541A84485405D1B0EAB34
:103B00009D501722521A1541002D00DC7DE0012343
:103B10009C46009BE044002B48DD0E9C002C00D10D
:103B20004BE301220023002180204004041B0EA847
:103B300044500099914218DD92000EA989580EACAC
:103B40000591059817490233081AA050009A9A4225
:103B50000BDD0EAA9446009A9B00900063446044DB
:103B60001A688A1A04C38342FAD1049B0124002BE9
:103B700021DC022D49D132003B0000200A4902F02D
:103B80008DFE06000F0032E094FDFFFF80770000FD
:103B9000FFFFFF3FFFFFFF1F0000703E000070416E
:103BA00000002040FFFFFF000000F03F049B0024C6
:103BB000002B00DC92E2049B012B00D17BE2022B64
:103BC00009D1009B0EA95A1E92000EAB9B5805937B
:103BD0009B029B0A8B50022D17D132003B00002024
:103BE000BF4902F05BFE06000F00002C0DD0049AC6
:103BF0000020BB4900F042FC02000B0030003900FD
:103C000002F04CFE022506000F00002300223000C7
:103C1000390000F029FE009B002800D162E20699DD
:103C20005A1E914210DCAF490D988C460EA9634490
:103C30008C4600219B0063441C68043B2143834263
:103C4000FAD1002900D084E0069B0EAA013B9B001C
:103C5000D358002B00D07CE201220C9B043B596816
:103C600001320029FAD000990B008C4601336244DE
:103C70000592934242DC0B9A9446A59A634492467D
:103C8000099A9B00944622AA90469A44009B089A5F
:103C90006344DB0098440A9B94469946059BE144A3
:103CA000DB00634400935346186803F041F9434630
:103CB00018605960029B002B23DB44460026002736
:103CC000039D2268636803CD02F068FB02000B00CD
:103CD0003000390001F01EFC083C06000F005D4575
:103CE000EFD14B469E60DF6004239C460433E244E0
:103CF0009C46009BE144E0449945D4D1059B009348
:103D000083E600260027ECE7049B002B06D1009BEE
:103D10000EAA013B9B00D558ED15F5E60022724B2B
:103D20003000390000F0C4FD0025002800D16CE708
:103D300001239C46009BE0440225002B00DDECE6BD
:103D400032003B000020664902F0A8FD06000F008B
:103D50005BE743460993049B0EA8183B19000493A4
:103D60009300C35803950292002B0FD15D481300B6
:103D700084460EA8634484469B006344043B586811
:103D8000013A18390028F9D002920491049A0020CF
:103D9000534900F073FB029B04000D00002B00DA76
:103DA000D9E10EAA94469E00DB0066449C46089A20
:103DB000B046624416000493009270AF4346186800
:103DC00003F0B6F822002B0002F0E8FA474B30600F
:103DD000716000222000290002F0E0FA04235B4217
:103DE0009C46083E04000D00E044BE42E6D100239C
:103DF0009A464AAB9946069B05969B465B4600262B
:103E00000027002B21DB8020394B009D9846C00500
:103E1000384900260027002408E008239C4608357E
:103E2000E044544511DC4346186859682A686B68B9
:103E300002F0B4FA02000B003000390001F06AFB16
:103E4000013406000F00A345E7DA5346DB004B447C
:103E50001E605F6001239C46009B059A083BE2447C
:103E600000939A42CAD1A49B022B00DD7AE0002B7A
:103E700042DC1CD1049B00274B441E00002448ADAB
:103E8000326873683800210001F044FB083E0700E7
:103E90000C00B542F4D1039B002B03D080231B06FA
:103EA0009C4664443A00230007990A604B6007204F
:103EB000099B18409B239B009D443CBC904699461F
:103EC000A246AB46F0BD534600260027C0C39A4623
:103ED00008239C46E144DA4500D062E581E5C0460E
:103EE0000000F03FFFFFFF3F0000E03F0000703E9A
:103EF00040770000FB21F93F049B00204B441E004B
:103F0000002148AF32687368083E01F003FBBE42EF
:103F1000F8D1039B002B00D1B8E08023079A1B0641
:103F2000CB18106053600B0002004A984B9902F0C6
:103F3000B5FC029B002B0BDD01264CAF0CCF01F032
:103F4000E9FA029B0136B342F8DA039B002B03D057
:103F500080231B069C4661440B00020007998A607F
:103F6000CB60A4E7A49B032BA1D1029B002B00DC18
:103F700020E1994A049B94464B441E685F68029B6B
:103F800063449B46DB004B44984648AB9A46434605
:103F90005C681B681800210032003B000090019112
:103FA00001F0B8FA04000D0002000B00009801991E
:103FB00002F074FC3B00320001F0ACFA434698601A
:103FC000D9601C605D6008235B429C46E04426008B
:103FD0002F00C245DBD1029B012B00DCEAE0049BF1
:103FE000C8464B441E685F685B46DB009B46D8446E
:103FF00043465C681B681800210032003B000090BB
:10400000019101F087FA04000D0002000B000098F6
:10401000019902F043FC3B00320001F07BFA434679
:104020009860D9601C605D6008235B429C46E04458
:1040300026002F00C145DBD15D460027002408354E
:104040004D444CAE2A686B683800210001F062FADA
:10405000083D07000C00AE42F4D1039B002B00D1B9
:1040600091E08021079A4A9B090613604B468C46D3
:104070005B686444634453604B469B68176193607C
:104080004B46DB6854616344D36010E702000B00C9
:10409000079C226063600B0002004A984B9902F073
:1040A000FDFB029B002B00DD46E70B000200079999
:1040B0008A60CB60FBE6009B0EA95A1E92000EABF5
:1040C0009B5805935B025B0A8B5084E5009A013391
:1040D0009A4276D1049B002B00DD6CE5022D00D0C6
:1040E00093E52DE6994643460993049B30005A42D6
:1040F0003900039500F0C2F90022384B04000D008E
:1041000000F0D6FB002830D0354B002220002900DB
:1041100002F044F902F0D8FE4A460600970002F089
:1041200007FF00222D4B02F039F902000B0020009E
:10413000290002F0B3FB02F0C7FE0EAAD0514A4696
:10414000049B013218330292049393000EAAD650B6
:104150001CE6012287E5A49B022B25DC002B38DC22
:1041600000D0A4E60027002495E64B462000290055
:104170009E0002F0A9FE0EAB98514B46029305E655
:1041800072AB08932DE407994A9A4B9B0A604B60E7
:104190004B469A68DB68009201938A60CB603A00D4
:1041A00023000A614B6182E64AAB9946A49B032B2C
:1041B00000D07CE6002700244FE7009A0123012A63
:1041C00088DD99000EAA5458002C00D17EE75A1CB5
:1041D000AAE4002000219CE6FFFFFF1F00007041C1
:1041E0000000703EF0B5CE46474680B587B00092DD
:1041F0000193464A4B00814688465B08934205DCA2
:1042000002F062FE4146031E484666D04A464346D7
:104210004846414602F0C2F804000D0002000B00BF
:104220004846414602F0BAF8394A3A4B06000F00B8
:104230002000290002F0B2F8374A384B02F02EFB7A
:1042400022002B0002F0AAF8354A364B01F062F941
:1042500022002B0002F0A2F8334A344B02F01EFB7E
:1042600022002B0002F09AF8314B324A01F052F949
:104270000E9B02900391002B34D0009801990022EC
:104280002D4B02F08BF8029A039B049005913000AD
:10429000390002F083F802000B000498059902F03F
:1042A000FDFA22002B0002F079F8009A019B02F03F
:1042B000F5FA224A04000D00214B3000390002F0CB
:1042C0006DF802000B002000290001F023F9020024
:1042D0000B004846414602F0E1FA07B00CBC90469C
:1042E0009946F0BD02000B002000290002F056F8AC
:1042F000124A134B02F0D2FA32003B0002F04EF8A1
:104300004A46434601F006F9E7E7C046FFFF3F3E55
:104310007CD5CF5A3AD9E53DEB9C2B8AE6E55A3E4F
:104320007DFEB157E31DC73ED561C119A0012A3FEB
:104330001111813FA6F810110000E03F4955555575
:104340005555C53F49004B0819007047454AF8B517
:10435000574692464B005B0D9A444E464546DE4614
:104360005246E0B50C0005000E0089460700132AEE
:1043700022DC002A47DB52463B4B134198460B0098
:1043800042461340034311D0384A394B01F0C2F87A
:104390000022002300F082FA002805D0002C41DB27
:1043A0004E46434600279E43380031003CBC9046B1
:1043B0009946A246AB46F8BD5246332A08DD802313
:1043C000DB009A45F2D102000B0001F0A3F8EDE703
:1043D000284A9446012263445242DA4093460242FC
:1043E000E4D0224A224B01F095F80022002300F08D
:1043F00055FA0028D8D0002C1ADB5B464E469F4366
:1044000038003100D2E7194A194B01F083F8002235
:10441000002300F043FA0028C6D0002C16DB00274A
:104420000026C1E7802352465B0313419944B7E756
:104430005346142B12D03423524601279B1A9F4017
:104440007F19AF429B415B429944D6E76400640800
:1044500025430027002DA7D0074EA5E7133B9C4618
:10446000E144CAE701FCFFFFFFFF0F009C750088D5
:104470003CE4377EEDFBFFFF0000F0BF4B0070B562
:104480005B0D14000A00002B1AD14B005B0803439C
:1044900015D00022224B01F081FF224B0A009C42E2
:1044A00022DB4B005B0D363B1F4DE318AB4220DC9B
:1044B000002B0DDD1D4C1B0522401A43110070BD61
:1044C0001B4DAB42F0D102000B0001F023F8F6E7E0
:1044D0001D00353518DA174B02009C420ADC0B0030
:1044E0001548164900F032F8134A144B01F056FFF4
:1044F000E5E702000B001248124900F027F8104AC5
:10450000104B01F04BFFDAE7084C363322401B0515
:104510001343190000220C4B01F040FFCFE7C046C7
:1045200000005043B03CFFFFFE070000FFFF0F807C
:10453000FF07000050C3000059F3F8C21F6EA50129
:104540009C7500883CE4377E0000903C30B54A0002
:10455000DB0FDB0752081A43110030BD002243086D
:104560008B4274D303098B425FD3030A8B4244D33B
:10457000030B8B4228D3030C8B420DD3FF2209027D
:1045800012BA030C8B4202D31212090265D0030B3C
:104590008B4219D300E0090AC30B8B4201D3CB0332
:1045A000C01A5241830B8B4201D38B03C01A524174
:1045B000430B8B4201D34B03C01A5241030B8B4276
:1045C00001D30B03C01A5241C30A8B4201D3CB0261
:1045D000C01A5241830A8B4201D38B02C01A524146
:1045E000430A8B4201D34B02C01A5241030A8B4249
:1045F00001D30B02C01A5241CDD2C3098B4201D361
:10460000CB01C01A524183098B4201D38B01C01ADE
:10461000524143098B4201D34B01C01A5241030955
:104620008B4201D30B01C01A5241C3088B4201D304
:10463000CB00C01A524183088B4201D38B00C01AB1
:10464000524143088B4201D34B00C01A5241411AD8
:1046500000D20146524110467047FFE701B50020E5
:1046600000F0F0F802BDC0460029F7D076E77047A9
:1046700003460B437FD4002243088B4274D30309C3
:104680008B425FD3030A8B4244D3030B8B4228D364
:10469000030C8B420DD3FF22090212BA030C8B428A
:1046A00002D31212090265D0030B8B4219D300E02A
:1046B000090AC30B8B4201D3CB03C01A5241830BAF
:1046C0008B4201D38B03C01A5241430B8B4201D35F
:1046D0004B03C01A5241030B8B4201D30B03C01A88
:1046E0005241C30A8B4201D3CB02C01A5241830A02
:1046F0008B4201D38B02C01A5241430A8B4201D331
:104700004B02C01A5241030A8B4201D30B02C01A5A
:104710005241CDD2C3098B4201D3CB01C01A5241C1
:1047200083098B4201D38B01C01A524143098B424A
:1047300001D34B01C01A524103098B4201D30B0133
:10474000C01A5241C3088B4201D3CB00C01A524158
:1047500083088B4201D38B00C01A524143088B421D
:1047600001D34B00C01A5241411A00D201465241B6
:10477000104670475DE0CA0F00D04942031000D3D5
:104780004042534000229C4603098B422DD3030A2A
:104790008B4212D3FC22890112BA030A8B420CD33A
:1047A000890192118B4208D3890192118B4204D363
:1047B00089013AD0921100E08909C3098B4201D3E3
:1047C000CB01C01A524183098B4201D38B01C01A1D
:1047D000524143098B4201D34B01C01A5241030994
:1047E0008B4201D30B01C01A5241C3088B4201D343
:1047F000CB00C01A524183088B4201D38B00C01AF0
:104800005241D9D243088B4201D34B00C01A5241C6
:10481000411A00D20146634652415B10104601D353
:104820004042002B00D54942704763465B1000D3DD
:10483000404201B5002000F005F802BD0029F8D083
:1048400016E770477047C0468446101C62468C4687
:10485000191C634600E0C0461FB501F03DFD00286D
:1048600001D40021C8421FBD10B501F097FC4042A1
:10487000013010BD10B501F02FFD002801DB002034
:1048800010BD012010BDC04610B501F025FD002867
:1048900001DD002010BD012010BDC04610B501F0A3
:1048A000B7FC002801DC002010BD012010BDC0466F
:1048B00010B501F0ADFC002801DA002010BD012088
:1048C00010BDC0468446081C6146FFE71FB500F0D6
:1048D0006DFA002801D40021C8421FBD10B500F0B8
:1048E000FFF94042013010BD10B500F05FFA00281A
:1048F00001DB002010BD012010BDC04610B500F046
:1049000055FA002801DD002010BD012010BDC04671
:1049100010B500F00BFA002801DC002010BD0120CA
:1049200010BDC04610B500F001FA002801DA0020E1
:1049300010BD012010BDC046F0B5CE464746150457
:104940002D0C2E0080B50704140C3F0C9946030C67
:104950007E435D43674363437F19340CE4199C46EF
:10496000A54203D980235B029846C4444B46514379
:1049700043433604360C250C24046544A419591805
:10498000491920000CBC90469946F0BD9E2110B5F7
:10499000C905041CFFF7C6FF002803D1201C00F046
:1049A00003FD10BD9E21201CC90500F061FB00F035
:1049B000FBFC80231B069C466044F2E7F0B5C6462C
:1049C0004E024702760A7B0A4400C50FF7004800F2
:1049D000984600B5240E2A00DB00000EC90FBC4625
:1049E0008D4267D0221A002A00DCA5E000283AD1C7
:1049F000002F00D193E0511E002900D0BCE001241B
:104A0000DB1B5A0146D59B019E09300002F0E6FBF4
:104A100005388640844200DD9DE0041B32002020E2
:104A20000134E240041BA64033005E1EB341002463
:104A300013435A0704D00F221A40042A00D004332B
:104A40005A0129D50134FF2C00D181E02A009B01B5
:104A50005B0AE4B25B02E405580AD2072043104324
:104A600004BC9046F0BDFF2CE3D080213800C9047F
:104A7000084384461B2A00DD82E020206146D140A5
:104A8000821A604690400200501E82410A439B1ADF
:104A90005A01B8D45A07CED1DE082A00FF2C3AD1E9
:104AA000002E00D1AEE08023DB0333435B025B0AC0
:104AB000FF24CFE7211A002952DD002831D0FF2C36
:104AC000B7D080203E00C0040643B4461B2900DD59
:104AD000AAE020266046C840711A66468E40310022
:104AE0004E1EB14101435B185901D3D50134FF2C4F
:104AF00000D187E0012278491A405B080B4013433C
:104B000097E7002C00D0A7E0002B00D0B6E03B1EBA
:104B100062D10026002273025B0AE4B29AE7140015
:104B200087E7002F4DD0481E002857D16344012449
:104B30005A01AFD50224DDE7002A24D1621CD2B28B
:104B4000012ADEDDDE1B720135D5FE1A0D005CE7A1
:104B50002A0000237EE73300604A241A134068E7E6
:104B6000002963D1611CC8B201284EDDFF2949D05C
:104B700063445B080C005CE7FF2A41D00A0079E738
:104B800001229B1A84E7002C1DD0FF2822D080240C
:104B9000E404524223431B2A00DD8AE01C00202546
:104BA000D440AA1A93405A1E9341234362460400FC
:104BB000D31A0D0025E7002E00D026E7002200249E
:104BC000A9E70C0035E7002B4DD0D243002AEDD0E9
:104BD000FF28E0D16346FF240D002AE7FF290FD00C
:104BE000010073E7002B61D0FF24002F00D120E7E4
:104BF00080224146D203114202D0164200D13B002E
:104C0000FF2416E7FF24002324E7002CEAD1002B21
:104C100058D0002F00D10CE763445A0100D439E783
:104C20002E4A0C00134004E701215CE7002C1ED142
:104C3000002B40D0C94300290BD0FF2836D01B29B8
:104C400047DC1C002026CC40711A8B40591E8B413A
:104C500023436344040047E7002B18D13B1E2DD0AB
:104C60000D00FF24E5E63B0004000D00E1E6FF280F
:104C70001CD08024E40449422343E0E7002F00D104
:104C8000D7E6DE1B72011FD5FB1A0D00D1E6FF240B
:104C9000002F00D1CDE680224046D2031042AFD093
:104CA0001642ADD13B000D00FF24C2E66346FF244F
:104CB000BFE601237AE73B000400BAE68026002223
:104CC000F603F0E63B00B4E6331E00D0E2E6002235
:104CD00021E70123BDE7C046FFFFFF7DFFFFFFFB8C
:104CE00070B5420045024E024C00C30F6D0A120E11
:104CF000760A240EC90F0120FF2A06D0FF2C03D00C
:104D0000A24201D1B54206D070BD002DFCD1FF2CCE
:104D1000FAD1002EF8D18B4206D00120002AF3D11F
:104D20002800451EA841EFE70020EDE7F0B542005E
:104D300045024C02C30F48006D0A120E640A000EB1
:104D4000C90FFF2A1ED0FF2821D0002A0AD16E42A7
:104D50006E41F6B200280FD1002C0DD10020002D9D
:104D600009D005E0002801D1002C01D08B4211D0E0
:104D7000012158420843F0BD002EF7D0012001392F
:104D80000843F8E7002DDED002204042F3E7002C74
:104D9000DBD0F9E78242EBDC04DBA542E8D8002057
:104DA000A542E8D20121581E0843E4E7F0B54200CD
:104DB0004D024C004602760A120EC30F6D0A240EF5
:104DC000C90FFF2A16D0FF2C18D0002A0AD1704232
:104DD0007041C0B2002C15D0002805D00120013947
:104DE0000843F0BD002C13D0994214D001205B423F
:104DF0001843F6E70220002EF3D1E4E70220002D4D
:104E0000EFD1E2E7002DE7D10020002EE9D0EDE759
:104E1000002DE9D1EAE7A24206DCDFDBAE4203D88F
:104E20000020AE42DAD3DCE7012049420843D8E74C
:104E3000F8B557464E464546DE46E0B547024600C1
:104E400088467F0A360EC40F002E47D0FF2E24D08E
:104E5000FB008027FF041F43002399469A467F3EAC
:104E600043465D025800DB0F6D0A000E984643D0A2
:104E7000FF283BD0EB0080250022ED041D437F3846
:104E80003618731C41469B464B46614013430F2B1B
:104E900064D875489B00C3589F46002F42D1082311
:104EA0009946063BFF269A46DAE74146022A28D071
:104EB000032A00D1CEE0012A00D0ACE0114000204E
:104EC0000022CCB24002D205400AE407104320433E
:104ED0003CBC90469946A246AB46F8BD002F15D182
:104EE00004239946033B00269A46B9E7FF20022295
:104EF000002DC5D00322C3E7002D19D100200122C7
:104F0000BEE70124FF220C400020DBE7380002F05E
:104F100065F97626431F9F4000237642361A99464C
:104F20009A469DE70C239946093BFF269A4697E748
:104F3000280002F053F9431F9D4076235B42181A64
:104F400000229DE780200024C003FF22BAE73D0035
:104F50005246ABE73D0021005246A7E73B0C9C467A
:104F60002A04120C2B0C1400604665463F043F0CCB
:104F70007C4342435D437B43270C9B18FF18BA4296
:104F800003D980235B029C46654424043A04240C24
:104F9000121993015C1EA3413F0C920E7D191A4316
:104FA000AD0115432B0104D501235E466A081D405F
:104FB000154332007F32002A25DD6B0704D00F2312
:104FC0002B40042B00D004352B0103D53200274B96
:104FD00080321D40FE2A94DC0124A801400AD2B28E
:104FE0000C406FE78020C003074207D0054205D17F
:104FF00028434002400A4446FF2263E73843400208
:10500000400AFF225EE70124A31A1B2B05DD0C409A
:105010000022002056E75E46CBE72A002020DA4037
:10502000C31A9D402B005D1EAB4113435A0704D0A9
:105030000F221A40042A00D004335A0104D5012457
:1050400001220C4000203DE701249B01580A0C403E
:10505000002237E780200124C00328434002400A91
:105060000C40FF222EE7C04690770000FFFFFFF7BD
:10507000F0B54F46D64646464400C0B5C20F47027B
:105080004802400A844666467B0A4800C90F9A4691
:10509000240E1500DB00000E8946F600FF2800D123
:1050A0008FE001214F464F403900914266D0221ACD
:1050B000002A00DC9DE000283DD1002E00D18BE0CD
:1050C000511E002900D0B5E001249B1B5A0144D594
:1050D0009B019F09380002F081F80538874084421F
:1050E00000DD96E0041B3A0020200134E240041B5E
:1050F000A7403B005F1EBB41002413435A0704D066
:105100000F221A40042A00D004335A0127D5013453
:10511000FF2C00D179E001229B015B0AE4B22A4016
:105120005B02E405580AD207204310431CBC90469A
:105130009946A246F0BDFF2CE0D08021C9040E4361
:105140001B2A7BDC31002020D140821A9640721E3F
:1051500096410E439B1B5A01BAD45A07D0D1012263
:10516000DF082A40FF2C33D1002F00D1A8E0802394
:10517000DB033B435B025B0AFF24D1E7211A0029D2
:105180004CDD00282AD0FF2CB8D08020C004064374
:105190001B2900DDAFE030002027C840791A8E407F
:1051A000711E8E4106439B195901D6D50134FF2C3F
:1051B00000D185E001227A491A405B080B40134375
:1051C0009CE7002E00D070E76BE73B1EC5D10022A4
:1051D0007B025B0AE4B2A3E714008FE7002E4DD0F8
:1051E000481E002857D19B1901245A01B5D5022425
:1051F000E0E7002A25D1621CD2B2012A72DD9F1B92
:105200007A0135D5F71A0D0064E7012200232A4000
:1052100086E73B00634A241A13406FE700296CD1EC
:10522000611CC8B201284EDDFF2949D09B195B08DB
:105230000C0063E7FF2A41D00A0081E701269B1B8F
:1052400089E7002C1CD0FF2821D08024E40452429E
:1052500023431B2A00DD96E01C002025D440AA1A17
:1052600093405A1E93412343F31A04000D002DE787
:10527000002F00D02EE700220024A9E70C003DE714
:10528000002B58D0D243002AEED0FF28E1D13300C2
:10529000FF240D0032E7FF2910D0010078E7002B32
:1052A0006ED0FF24002E00D128E780225146D20381
:1052B000114203D06146114200D13300FF241DE7A3
:1052C000FF2400232CE7002CE9D1002B63D0002E13
:1052D00000D113E79B195A0100D43EE7314A0C0074
:1052E00013400BE7002C1ED1002B2FD1002E4FD0E6
:1052F00033000D0002E7012655E7002C1FD1002BDB
:1053000043D0C94300290BD0FF2839D01B2944DCE6
:105310001C002027CC40791A8B40591E8B41234317
:105320009B19040040E7002B1AD1002E24D18027BE
:105330000022FF031BE7330004000D00DEE6FF2818
:105340001ED08024E40449422343DFE7002E00D12D
:10535000D4E69F1B7A0100D437E7F31A0D00CDE69F
:10536000FF24002E00D1C9E680225046D20310420D
:10537000A4D060461042A1D133000D00FF24BDE649
:105380003300FF24BAE601236EE733000400B5E6DC
:10539000002700221CE73300B0E60123C0E7C04627
:1053A000FFFFFF7DFFFFFFFB41024300C20F490AE1
:1053B0001B0E00207E2B0DDD9D2B0CDC80200004BD
:1053C0000143952B0ADC9620C31AD9404842002A93
:1053D00000D108007047034BD018FBE7963B99407B
:1053E000F4E7C046FFFFFF7F70B5002830D0C31739
:1053F000C4185C40C50F200001F0F0FE9E231B1A6C
:10540000962B0DDC9622D21A94402A006402640A7C
:10541000DBB26402DB05600AD2071843104370BD9B
:10542000992B19DC9922D21A002A29DD94402200F6
:10543000144C1440510704D00F210A40042A00D014
:105440000434620113D4A401640ADBB22A00E0E749
:10545000002200230024DCE705222100121AD1409B
:10546000B922D21A9440621E94410C43DAE7054BEC
:105470002A001C409F23A4011B1A640ADBB2C8E760
:105480002200D5E7FFFFFFFB10B5041E27D001F077
:10549000A5FE9E231B1A962B0ADC9622D21A944054
:1054A0006402640ADBB26402DB05600A184310BDC3
:1054B000992B17DC9922D21A002A27DD944022006A
:1054C000134C1440510704D00F210A40042A00D085
:1054D0000434620112D4A401640ADBB2E3E70023BE
:1054E0000024E0E7B9222100D21A91400A00511E9F
:1054F0008A410521091ACC401443DBE7044B1C40C8
:105500009F23A4011B1A640ADBB2CCE72200D7E771
:10551000FFFFFFFBF8B54546DE4657464E460C03F7
:10552000E0B54E00C90F88460D00610A440F0C43D8
:10553000C70019035800DB0F9B464B0A510F0B4362
:10554000760D400D1900D200D84500D1AEE0351AD5
:10555000002D00DCF6E000280FD1134300D1DBE082
:105560006B1E002B00D037E1BA1A9742BF41641A74
:105570007F42E41B0126170024E0C64B9E424DD01B
:1055800080231B041943382D00DD07E11F2D00DDAA
:1055900038E12020431B9A460B0050468340994631
:1055A00013004846EB401843030050468240501E0B
:1055B0008241E9401A43BA1A611A9742A44117007E
:1055C00064420C1B230262D56402650A002D00D1DF
:1055D000DFE0280001F002FE0300083B1F2B00DD86
:1055E000D2E020223C00D21A9D40D4409F40254367
:1055F0009E4200DDC4E09E1B731C1F2B00DDF1E00A
:10560000202238002900D21AD840914097402C001F
:105610000143781E8741DC4000260F437B0709D0F9
:105620000F233B40042B05D03B1DBB42BF417F42B3
:10563000E4191F0023022CD5964B01369E4200D15F
:105640009AE04546944BFF081C40600776056402CB
:105650000743240B760D00212403230B0C0D8F4AE6
:1056600024051C431440330523435B00ED075B080E
:105670002B43380019003CBC90469946A246AB46E5
:10568000F8BD6446044300D111E2040067467B077D
:10569000C6D145466007FF080743E4087D4B9E429C
:1056A00030D024037605240B760DD4E7331A9A46BE
:1056B000002B78DD002831D076488642AED080209D
:1056C000000401435346382B00DCE9E00A43511E35
:1056D0008A410021D219BA42BF4109197C42170000
:1056E0000C192302D3D56B4B01369E4200D13AE10F
:1056F0000120694B1C407B0807401F43E00707431C
:1057000064088BE723003B4300D1CBE180221203E6
:1057100014432403240B9EE72E007FE70800104368
:1057200000D1B4E0581E002800D0DEE0BA18BA421A
:105730009B4164185B42E418170001262302A6D59A
:105740000226D5E7002D6ED1701C4005400D0128C2
:1057500000DCF9E0B81A844687428041E51A4042ED
:105760002D1A280200D489E0D71BBA4292411C1B93
:105770005242A51AD84629E74546002400276AE781
:10578000454CF61A2C4049E73D0028388540002753
:105790002EE7380001F022FD20301DE70A43511E9C
:1057A0008A41002107E7002B00D0F3E0701C43057D
:1057B0005B0D012B00DCADE0364B984200D1D1E00F
:1057C000BA18BA42BF4164187F42E419E707520889
:1057D00017436408060021E72E48854200D193E074
:1057E0001D00D0E629001F3EF140202B00D18DE0A6
:1057F0004022D31A9D402F437D1EAF4100240F430A
:10580000002644E72B000800203BD8400300202D51
:1058100000D17DE04020451BA9400A43511E8A412A
:1058200000211A43C7E6002E50D01A4EB04257D07E
:1058300080266B429946360434434B46382B00DDB4
:10584000D6E01F2B00DD35E12026F51A2600AE40FC
:10585000B2463E00DE40AC46350056462E43654615
:10586000AF407D1EAF41DC403743D71BBA42924167
:105870000C1B5242A41A0600D846A3E664466746AB
:105880002C4300D0A2E600250026002706E71E00D4
:10589000C4E6C046FF070000FFFF7FFFFFFF0F8049
:1058A0001F2B63DC2020C31A080098409C468346C7
:1058B00053461000D84003005846184363469A40A8
:1058C000531E9A4153460243D94003E726003E4304
:1058D00006D0EB439946002BC7D0944EB042ACD1D2
:1058E0000C0017000600D84698E6904B9A450BD05E
:1058F0008246E7E6002800D09EE01800104300D161
:10590000E9E01C001700D846884E87E6002572E7BC
:10591000002182E723003B43002E00D0ABE0002BA8
:1059200000D1E7E00B00134300D177E6BA18BA4282
:10593000BF4164187F42E419230200D4F2E07C4B9B
:1059400017001C40060069E620003843002ED1D124
:1059500000285BD11C00144300D1A8E01C001700F4
:10596000D8465BE606000024002797E650460B0069
:105970002038C34099465346202B00D195E0402360
:1059800050461B1A99400A43511E8A414B4600213A
:105990001A439FE6002E30D126003E4367D0DB43FA
:1059A0009A46002B1CD0614EB04260D05346382B33
:1059B00000DD96E01F2B00DD9FE02026F31A260075
:1059C0009E409C46B34653463E00DE4033005E4652
:1059D0001E4363469F407B1E9F415346DC40374336
:1059E000BF189742924164185242A418060078E604
:1059F00027437C1EA741002437E74C4EB04236D0E7
:105A000080265B4236049A463443CFE718001043A1
:105A100000D103E6B81A84466745AD41E01A6D42ED
:105A2000401B050200D42CE6D71BBA4292411C1B36
:105A30005242A41AD846F1E51800104300D163E79A
:105A4000F808670707438020E4080003044208D0F1
:105A5000DD08054205D1D208590711430F002C007B
:105A6000D8467B0FE4001C43FF00304ED6E50C0007
:105A700017000600D2E5002B38D00B00134300D1ED
:105A800042E7F808670707438020E4080003044260
:105A9000E7D0CB080342E4D1D208490711430F00F5
:105AA0001C00DEE700270024D5E500216BE7002578
:105AB0000027F3E54E462500203EF5404B462E00DC
:105AC000202B2DD04025ED1AAC4027437C1EA7414A
:105AD00000243743C9E6802400252403134E002701
